{
  "_format": "hh-sol-artifact-1",
  "contractName": "DCLToken",
  "sourceName": "contracts/DCLToken.sol",
  "abi": [
    {
      "inputs": [
        {
          "internalType": "string",
          "name": "_name",
          "type": "string"
        },
        {
          "internalType": "string",
          "name": "_symbol",
          "type": "string"
        }
      ],
      "stateMutability": "nonpayable",
      "type": "constructor"
    },
    {
      "anonymous": false,
      "inputs": [
        {
          "indexed": true,
          "internalType": "address",
          "name": "owner",
          "type": "address"
        },
        {
          "indexed": true,
          "internalType": "address",
          "name": "spender",
          "type": "address"
        },
        {
          "indexed": false,
          "internalType": "uint256",
          "name": "value",
          "type": "uint256"
        }
      ],
      "name": "Approval",
      "type": "event"
    },
    {
      "anonymous": false,
      "inputs": [
        {
          "indexed": true,
          "internalType": "address",
          "name": "from",
          "type": "address"
        },
        {
          "indexed": true,
          "internalType": "address",
          "name": "to",
          "type": "address"
        },
        {
          "indexed": false,
          "internalType": "uint256",
          "name": "value",
          "type": "uint256"
        }
      ],
      "name": "Transfer",
      "type": "event"
    },
    {
      "inputs": [
        {
          "internalType": "uint256",
          "name": "_amount",
          "type": "uint256"
        }
      ],
      "name": "addToken",
      "outputs": [],
      "stateMutability": "nonpayable",
      "type": "function"
    },
    {
      "inputs": [
        {
          "internalType": "address",
          "name": "owner",
          "type": "address"
        },
        {
          "internalType": "address",
          "name": "spender",
          "type": "address"
        }
      ],
      "name": "allowance",
      "outputs": [
        {
          "internalType": "uint256",
          "name": "",
          "type": "uint256"
        }
      ],
      "stateMutability": "view",
      "type": "function"
    },
    {
      "inputs": [
        {
          "internalType": "address",
          "name": "spender",
          "type": "address"
        },
        {
          "internalType": "uint256",
          "name": "amount",
          "type": "uint256"
        }
      ],
      "name": "approve",
      "outputs": [
        {
          "internalType": "bool",
          "name": "",
          "type": "bool"
        }
      ],
      "stateMutability": "nonpayable",
      "type": "function"
    },
    {
      "inputs": [
        {
          "internalType": "address",
          "name": "account",
          "type": "address"
        }
      ],
      "name": "balanceOf",
      "outputs": [
        {
          "internalType": "uint256",
          "name": "",
          "type": "uint256"
        }
      ],
      "stateMutability": "view",
      "type": "function"
    },
    {
      "inputs": [
        {
          "internalType": "uint256",
          "name": "_amount",
          "type": "uint256"
        }
      ],
      "name": "burnToken",
      "outputs": [],
      "stateMutability": "nonpayable",
      "type": "function"
    },
    {
      "inputs": [
        {
          "internalType": "uint256",
          "name": "",
          "type": "uint256"
        }
      ],
      "name": "buyerAddress",
      "outputs": [
        {
          "internalType": "address",
          "name": "",
          "type": "address"
        }
      ],
      "stateMutability": "view",
      "type": "function"
    },
    {
      "inputs": [
        {
          "internalType": "address",
          "name": "",
          "type": "address"
        }
      ],
      "name": "buyers",
      "outputs": [
        {
          "internalType": "bool",
          "name": "",
          "type": "bool"
        }
      ],
      "stateMutability": "view",
      "type": "function"
    },
    {
      "inputs": [],
      "name": "decimals",
      "outputs": [
        {
          "internalType": "uint8",
          "name": "",
          "type": "uint8"
        }
      ],
      "stateMutability": "view",
      "type": "function"
    },
    {
      "inputs": [
        {
          "internalType": "address",
          "name": "spender",
          "type": "address"
        },
        {
          "internalType": "uint256",
          "name": "subtractedValue",
          "type": "uint256"
        }
      ],
      "name": "decreaseAllowance",
      "outputs": [
        {
          "internalType": "bool",
          "name": "",
          "type": "bool"
        }
      ],
      "stateMutability": "nonpayable",
      "type": "function"
    },
    {
      "inputs": [
        {
          "internalType": "address",
          "name": "add",
          "type": "address"
        }
      ],
      "name": "exists2",
      "outputs": [
        {
          "internalType": "bool",
          "name": "",
          "type": "bool"
        }
      ],
      "stateMutability": "view",
      "type": "function"
    },
    {
      "inputs": [],
      "name": "getBuyerAddresses",
      "outputs": [
        {
          "internalType": "address[]",
          "name": "",
          "type": "address[]"
        }
      ],
      "stateMutability": "view",
      "type": "function"
    },
    {
      "inputs": [
        {
          "internalType": "address",
          "name": "spender",
          "type": "address"
        },
        {
          "internalType": "uint256",
          "name": "addedValue",
          "type": "uint256"
        }
      ],
      "name": "increaseAllowance",
      "outputs": [
        {
          "internalType": "bool",
          "name": "",
          "type": "bool"
        }
      ],
      "stateMutability": "nonpayable",
      "type": "function"
    },
    {
      "inputs": [],
      "name": "name",
      "outputs": [
        {
          "internalType": "string",
          "name": "",
          "type": "string"
        }
      ],
      "stateMutability": "view",
      "type": "function"
    },
    {
      "inputs": [],
      "name": "owner",
      "outputs": [
        {
          "internalType": "address payable",
          "name": "",
          "type": "address"
        }
      ],
      "stateMutability": "view",
      "type": "function"
    },
    {
      "inputs": [],
      "name": "purchageToken",
      "outputs": [],
      "stateMutability": "payable",
      "type": "function"
    },
    {
      "inputs": [],
      "name": "symbol",
      "outputs": [
        {
          "internalType": "string",
          "name": "",
          "type": "string"
        }
      ],
      "stateMutability": "view",
      "type": "function"
    },
    {
      "inputs": [],
      "name": "totalSupply",
      "outputs": [
        {
          "internalType": "uint256",
          "name": "",
          "type": "uint256"
        }
      ],
      "stateMutability": "view",
      "type": "function"
    },
    {
      "inputs": [
        {
          "internalType": "address",
          "name": "to",
          "type": "address"
        },
        {
          "internalType": "uint256",
          "name": "amount",
          "type": "uint256"
        }
      ],
      "name": "transfer",
      "outputs": [
        {
          "internalType": "bool",
          "name": "",
          "type": "bool"
        }
      ],
      "stateMutability": "nonpayable",
      "type": "function"
    },
    {
      "inputs": [
        {
          "internalType": "address",
          "name": "from",
          "type": "address"
        },
        {
          "internalType": "address",
          "name": "to",
          "type": "address"
        },
        {
          "internalType": "uint256",
          "name": "amount",
          "type": "uint256"
        }
      ],
      "name": "transferFrom",
      "outputs": [
        {
          "internalType": "bool",
          "name": "",
          "type": "bool"
        }
      ],
      "stateMutability": "nonpayable",
      "type": "function"
    }
  ],
  "bytecode": "0x60806040523480156200001157600080fd5b5060405162002a3438038062002a348339818101604052810190620000379190620004a7565b818181600390805190602001906200005192919062000385565b5080600490805190602001906200006a92919062000385565b50505033600560006101000a81548173ffffffffffffffffffffffffffffffffffffffff021916908373ffffffffffffffffffffffffffffffffffffffff1602179055506006600560009054906101000a900473ffffffffffffffffffffffffffffffffffffffff169080600181540180825580915050600190039060005260206000200160009091909190916101000a81548173ffffffffffffffffffffffffffffffffffffffff021916908373ffffffffffffffffffffffffffffffffffffffff1602179055506001600760003373ffffffffffffffffffffffffffffffffffffffff1673ffffffffffffffffffffffffffffffffffffffff16815260200190815260200160002060006101000a81548160ff02191690831515021790555060006200019d620001f960201b60201c565b600a620001ab9190620006b9565b6103e8620001ba9190620007f6565b9050620001f0600560009054906101000a900473ffffffffffffffffffffffffffffffffffffffff16826200020260201b60201c565b505050620009e4565b60006012905090565b600073ffffffffffffffffffffffffffffffffffffffff168273ffffffffffffffffffffffffffffffffffffffff16141562000275576040517f08c379a00000000000000000000000000000000000000000000000000000000081526004016200026c9062000552565b60405180910390fd5b62000289600083836200037b60201b60201c565b80600260008282546200029d919062000601565b92505081905550806000808473ffffffffffffffffffffffffffffffffffffffff1673ffffffffffffffffffffffffffffffffffffffff1681526020019081526020016000206000828254620002f4919062000601565b925050819055508173ffffffffffffffffffffffffffffffffffffffff16600073ffffffffffffffffffffffffffffffffffffffff167fddf252ad1be2c89b69c2b068fc378daa952ba7f163c4a11628f55a4df523b3ef836040516200035b919062000574565b60405180910390a362000377600083836200038060201b60201c565b5050565b505050565b505050565b8280546200039390620008a4565b90600052602060002090601f016020900481019282620003b7576000855562000403565b82601f10620003d257805160ff191683800117855562000403565b8280016001018555821562000403579182015b8281111562000402578251825591602001919060010190620003e5565b5b50905062000412919062000416565b5090565b5b808211156200043157600081600090555060010162000417565b5090565b60006200044c6200044684620005ba565b62000591565b9050828152602081018484840111156200046557600080fd5b620004728482856200086e565b509392505050565b600082601f8301126200048c57600080fd5b81516200049e84826020860162000435565b91505092915050565b60008060408385031215620004bb57600080fd5b600083015167ffffffffffffffff811115620004d657600080fd5b620004e4858286016200047a565b925050602083015167ffffffffffffffff8111156200050257600080fd5b62000510858286016200047a565b9150509250929050565b600062000529601f83620005f0565b91506200053682620009bb565b602082019050919050565b6200054c8162000857565b82525050565b600060208201905081810360008301526200056d816200051a565b9050919050565b60006020820190506200058b600083018462000541565b92915050565b60006200059d620005b0565b9050620005ab8282620008da565b919050565b6000604051905090565b600067ffffffffffffffff821115620005d857620005d76200096e565b5b620005e3826200099d565b9050602081019050919050565b600082825260208201905092915050565b60006200060e8262000857565b91506200061b8362000857565b9250827fffffffffffffffffffffffffffffffffffffffffffffffffffffffffffffffff0382111562000653576200065262000910565b5b828201905092915050565b6000808291508390505b6001851115620006b05780860481111562000688576200068762000910565b5b6001851615620006985780820291505b8081029050620006a885620009ae565b945062000668565b94509492505050565b6000620006c68262000857565b9150620006d38362000861565b9250620007027fffffffffffffffffffffffffffffffffffffffffffffffffffffffffffffffff84846200070a565b905092915050565b6000826200071c5760019050620007ef565b816200072c5760009050620007ef565b8160018114620007455760028114620007505762000786565b6001915050620007ef565b60ff84111562000765576200076462000910565b5b8360020a9150848211156200077f576200077e62000910565b5b50620007ef565b5060208310610133831016604e8410600b8410161715620007c05782820a905083811115620007ba57620007b962000910565b5b620007ef565b620007cf84848460016200065e565b92509050818404811115620007e957620007e862000910565b5b81810290505b9392505050565b6000620008038262000857565b9150620008108362000857565b9250817fffffffffffffffffffffffffffffffffffffffffffffffffffffffffffffffff04831182151516156200084c576200084b62000910565b5b828202905092915050565b6000819050919050565b600060ff82169050919050565b60005b838110156200088e57808201518184015260208101905062000871565b838111156200089e576000848401525b50505050565b60006002820490506001821680620008bd57607f821691505b60208210811415620008d457620008d36200093f565b5b50919050565b620008e5826200099d565b810181811067ffffffffffffffff821117156200090757620009066200096e565b5b80604052505050565b7f4e487b7100000000000000000000000000000000000000000000000000000000600052601160045260246000fd5b7f4e487b7100000000000000000000000000000000000000000000000000000000600052602260045260246000fd5b7f4e487b7100000000000000000000000000000000000000000000000000000000600052604160045260246000fd5b6000601f19601f8301169050919050565b60008160011c9050919050565b7f45524332303a206d696e7420746f20746865207a65726f206164647265737300600082015250565b61204080620009f46000396000f3fe6080604052600436106101145760003560e01c80637b47ec1a116100a0578063a9059cbb11610064578063a9059cbb146103db578063bed9b95214610418578063db064d0f14610455578063dd62ed3e14610492578063ffb17646146104cf57610114565b80637b47ec1a146102e25780638da5cb5b1461030b57806395d89b411461033657806397a993aa14610361578063a457c2d71461039e57610114565b806318160ddd116100e757806318160ddd146101d557806323b872dd14610200578063313ce5671461023d578063395093511461026857806370a08231146102a557610114565b806306b19db51461011957806306fdde0314610144578063095ea7b31461016f578063179d375c146101ac575b600080fd5b34801561012557600080fd5b5061012e6104d9565b60405161013b91906118c9565b60405180910390f35b34801561015057600080fd5b50610159610567565b6040516101669190611906565b60405180910390f35b34801561017b57600080fd5b50610196600480360381019061019191906115c7565b6105f9565b6040516101a391906118eb565b60405180910390f35b3480156101b857600080fd5b506101d360048036038101906101ce9190611603565b61061c565b005b3480156101e157600080fd5b506101ea6106a5565b6040516101f79190611a68565b60405180910390f35b34801561020c57600080fd5b5061022760048036038101906102229190611578565b6106af565b60405161023491906118eb565b60405180910390f35b34801561024957600080fd5b506102526106de565b60405161025f9190611a83565b60405180910390f35b34801561027457600080fd5b5061028f600480360381019061028a91906115c7565b6106e7565b60405161029c91906118eb565b60405180910390f35b3480156102b157600080fd5b506102cc60048036038101906102c79190611513565b610791565b6040516102d99190611a68565b60405180910390f35b3480156102ee57600080fd5b5061030960048036038101906103049190611603565b6107d9565b005b34801561031757600080fd5b50610320610862565b60405161032d91906118ae565b60405180910390f35b34801561034257600080fd5b5061034b610888565b6040516103589190611906565b60405180910390f35b34801561036d57600080fd5b5061038860048036038101906103839190611513565b61091a565b60405161039591906118eb565b60405180910390f35b3480156103aa57600080fd5b506103c560048036038101906103c091906115c7565b61093a565b6040516103d291906118eb565b60405180910390f35b3480156103e757600080fd5b5061040260048036038101906103fd91906115c7565b610a24565b60405161040f91906118eb565b60405180910390f35b34801561042457600080fd5b5061043f600480360381019061043a9190611603565b610a47565b60405161044c9190611893565b60405180910390f35b34801561046157600080fd5b5061047c60048036038101906104779190611513565b610a86565b60405161048991906118eb565b60405180910390f35b34801561049e57600080fd5b506104b960048036038101906104b4919061153c565b610adc565b6040516104c69190611a68565b60405180910390f35b6104d7610b63565b005b6060600680548060200260200160405190810160405280929190818152602001828054801561055d57602002820191906000526020600020905b8160009054906101000a900473ffffffffffffffffffffffffffffffffffffffff1673ffffffffffffffffffffffffffffffffffffffff1681526020019060010190808311610513575b5050505050905090565b60606003805461057690611c71565b80601f01602080910402602001604051908101604052809291908181526020018280546105a290611c71565b80156105ef5780601f106105c4576101008083540402835291602001916105ef565b820191906000526020600020905b8154815290600101906020018083116105d257829003601f168201915b5050505050905090565b600080610604610cc8565b9050610611818585610cd0565b600191505092915050565b600560009054906101000a900473ffffffffffffffffffffffffffffffffffffffff1673ffffffffffffffffffffffffffffffffffffffff163373ffffffffffffffffffffffffffffffffffffffff161461067657600080fd5b6106a2600560009054906101000a900473ffffffffffffffffffffffffffffffffffffffff1682610e9b565b50565b6000600254905090565b6000806106ba610cc8565b90506106c7858285610ffb565b6106d2858585611087565b60019150509392505050565b60006012905090565b6000806106f2610cc8565b9050610786818585600160008673ffffffffffffffffffffffffffffffffffffffff1673ffffffffffffffffffffffffffffffffffffffff16815260200190815260200160002060008973ffffffffffffffffffffffffffffffffffffffff1673ffffffffffffffffffffffffffffffffffffffff168152602001908152602001600020546107819190611af3565b610cd0565b600191505092915050565b60008060008373ffffffffffffffffffffffffffffffffffffffff1673ffffffffffffffffffffffffffffffffffffffff168152602001908152602001600020549050919050565b600560009054906101000a900473ffffffffffffffffffffffffffffffffffffffff1673ffffffffffffffffffffffffffffffffffffffff163373ffffffffffffffffffffffffffffffffffffffff161461083357600080fd5b61085f600560009054906101000a900473ffffffffffffffffffffffffffffffffffffffff1682611308565b50565b600560009054906101000a900473ffffffffffffffffffffffffffffffffffffffff1681565b60606004805461089790611c71565b80601f01602080910402602001604051908101604052809291908181526020018280546108c390611c71565b80156109105780601f106108e557610100808354040283529160200191610910565b820191906000526020600020905b8154815290600101906020018083116108f357829003601f168201915b5050505050905090565b60076020528060005260406000206000915054906101000a900460ff1681565b600080610945610cc8565b90506000600160008373ffffffffffffffffffffffffffffffffffffffff1673ffffffffffffffffffffffffffffffffffffffff16815260200190815260200160002060008673ffffffffffffffffffffffffffffffffffffffff1673ffffffffffffffffffffffffffffffffffffffff16815260200190815260200160002054905083811015610a0b576040517f08c379a0000000000000000000000000000000000000000000000000000000008152600401610a0290611a28565b60405180910390fd5b610a188286868403610cd0565b60019250505092915050565b600080610a2f610cc8565b9050610a3c818585611087565b600191505092915050565b60068181548110610a5757600080fd5b906000526020600020016000915054906101000a900473ffffffffffffffffffffffffffffffffffffffff1681565b6000600760008373ffffffffffffffffffffffffffffffffffffffff1673ffffffffffffffffffffffffffffffffffffffff16815260200190815260200160002060009054906101000a900460ff169050919050565b6000600160008473ffffffffffffffffffffffffffffffffffffffff1673ffffffffffffffffffffffffffffffffffffffff16815260200190815260200160002060008373ffffffffffffffffffffffffffffffffffffffff1673ffffffffffffffffffffffffffffffffffffffff16815260200190815260200160002054905092915050565b600560009054906101000a900473ffffffffffffffffffffffffffffffffffffffff1673ffffffffffffffffffffffffffffffffffffffff163373ffffffffffffffffffffffffffffffffffffffff161415610bbe57600080fd5b6000606434610bcd9190611b49565b9050610bfc600560009054906101000a900473ffffffffffffffffffffffffffffffffffffffff163383611087565b610c0533610a86565b610cc5576001600760003373ffffffffffffffffffffffffffffffffffffffff1673ffffffffffffffffffffffffffffffffffffffff16815260200190815260200160002060006101000a81548160ff0219169083151502179055506006339080600181540180825580915050600190039060005260206000200160009091909190916101000a81548173ffffffffffffffffffffffffffffffffffffffff021916908373ffffffffffffffffffffffffffffffffffffffff1602179055505b50565b600033905090565b600073ffffffffffffffffffffffffffffffffffffffff168373ffffffffffffffffffffffffffffffffffffffff161415610d40576040517f08c379a0000000000000000000000000000000000000000000000000000000008152600401610d3790611a08565b60405180910390fd5b600073ffffffffffffffffffffffffffffffffffffffff168273ffffffffffffffffffffffffffffffffffffffff161415610db0576040517f08c379a0000000000000000000000000000000000000000000000000000000008152600401610da790611968565b60405180910390fd5b80600160008573ffffffffffffffffffffffffffffffffffffffff1673ffffffffffffffffffffffffffffffffffffffff16815260200190815260200160002060008473ffffffffffffffffffffffffffffffffffffffff1673ffffffffffffffffffffffffffffffffffffffff168152602001908152602001600020819055508173ffffffffffffffffffffffffffffffffffffffff168373ffffffffffffffffffffffffffffffffffffffff167f8c5be1e5ebec7d5bd14f71427d1e84f3dd0314c0f7b2291e5b200ac8c7c3b92583604051610e8e9190611a68565b60405180910390a3505050565b600073ffffffffffffffffffffffffffffffffffffffff168273ffffffffffffffffffffffffffffffffffffffff161415610f0b576040517f08c379a0000000000000000000000000000000000000000000000000000000008152600401610f0290611a48565b60405180910390fd5b610f17600083836114df565b8060026000828254610f299190611af3565b92505081905550806000808473ffffffffffffffffffffffffffffffffffffffff1673ffffffffffffffffffffffffffffffffffffffff1681526020019081526020016000206000828254610f7e9190611af3565b925050819055508173ffffffffffffffffffffffffffffffffffffffff16600073ffffffffffffffffffffffffffffffffffffffff167fddf252ad1be2c89b69c2b068fc378daa952ba7f163c4a11628f55a4df523b3ef83604051610fe39190611a68565b60405180910390a3610ff7600083836114e4565b5050565b60006110078484610adc565b90507fffffffffffffffffffffffffffffffffffffffffffffffffffffffffffffffff81146110815781811015611073576040517f08c379a000000000000000000000000000000000000000000000000000000000815260040161106a90611988565b60405180910390fd5b6110808484848403610cd0565b5b50505050565b600073ffffffffffffffffffffffffffffffffffffffff168373ffffffffffffffffffffffffffffffffffffffff1614156110f7576040517f08c379a00000000000000000000000000000000000000000000000000000000081526004016110ee906119e8565b60405180910390fd5b600073ffffffffffffffffffffffffffffffffffffffff168273ffffffffffffffffffffffffffffffffffffffff161415611167576040517f08c379a000000000000000000000000000000000000000000000000000000000815260040161115e90611928565b60405180910390fd5b6111728383836114df565b60008060008573ffffffffffffffffffffffffffffffffffffffff1673ffffffffffffffffffffffffffffffffffffffff168152602001908152602001600020549050818110156111f8576040517f08c379a00000000000000000000000000000000000000000000000000000000081526004016111ef906119a8565b60405180910390fd5b8181036000808673ffffffffffffffffffffffffffffffffffffffff1673ffffffffffffffffffffffffffffffffffffffff16815260200190815260200160002081905550816000808573ffffffffffffffffffffffffffffffffffffffff1673ffffffffffffffffffffffffffffffffffffffff168152602001908152602001600020600082825461128b9190611af3565b925050819055508273ffffffffffffffffffffffffffffffffffffffff168473ffffffffffffffffffffffffffffffffffffffff167fddf252ad1be2c89b69c2b068fc378daa952ba7f163c4a11628f55a4df523b3ef846040516112ef9190611a68565b60405180910390a36113028484846114e4565b50505050565b600073ffffffffffffffffffffffffffffffffffffffff168273ffffffffffffffffffffffffffffffffffffffff161415611378576040517f08c379a000000000000000000000000000000000000000000000000000000000815260040161136f906119c8565b60405180910390fd5b611384826000836114df565b60008060008473ffffffffffffffffffffffffffffffffffffffff1673ffffffffffffffffffffffffffffffffffffffff1681526020019081526020016000205490508181101561140a576040517f08c379a000000000000000000000000000000000000000000000000000000000815260040161140190611948565b60405180910390fd5b8181036000808573ffffffffffffffffffffffffffffffffffffffff1673ffffffffffffffffffffffffffffffffffffffff1681526020019081526020016000208190555081600260008282546114619190611ba3565b92505081905550600073ffffffffffffffffffffffffffffffffffffffff168373ffffffffffffffffffffffffffffffffffffffff167fddf252ad1be2c89b69c2b068fc378daa952ba7f163c4a11628f55a4df523b3ef846040516114c69190611a68565b60405180910390a36114da836000846114e4565b505050565b505050565b505050565b6000813590506114f881611fdc565b92915050565b60008135905061150d81611ff3565b92915050565b60006020828403121561152557600080fd5b6000611533848285016114e9565b91505092915050565b6000806040838503121561154f57600080fd5b600061155d858286016114e9565b925050602061156e858286016114e9565b9150509250929050565b60008060006060848603121561158d57600080fd5b600061159b868287016114e9565b93505060206115ac868287016114e9565b92505060406115bd868287016114fe565b9150509250925092565b600080604083850312156115da57600080fd5b60006115e8858286016114e9565b92505060206115f9858286016114fe565b9150509250929050565b60006020828403121561161557600080fd5b6000611623848285016114fe565b91505092915050565b60006116388383611653565b60208301905092915050565b61164d81611be9565b82525050565b61165c81611bd7565b82525050565b61166b81611bd7565b82525050565b600061167c82611aae565b6116868185611ad1565b935061169183611a9e565b8060005b838110156116c25781516116a9888261162c565b97506116b483611ac4565b925050600181019050611695565b5085935050505092915050565b6116d881611bfb565b82525050565b60006116e982611ab9565b6116f38185611ae2565b9350611703818560208601611c3e565b61170c81611d01565b840191505092915050565b6000611724602383611ae2565b915061172f82611d12565b604082019050919050565b6000611747602283611ae2565b915061175282611d61565b604082019050919050565b600061176a602283611ae2565b915061177582611db0565b604082019050919050565b600061178d601d83611ae2565b915061179882611dff565b602082019050919050565b60006117b0602683611ae2565b91506117bb82611e28565b604082019050919050565b60006117d3602183611ae2565b91506117de82611e77565b604082019050919050565b60006117f6602583611ae2565b915061180182611ec6565b604082019050919050565b6000611819602483611ae2565b915061182482611f15565b604082019050919050565b600061183c602583611ae2565b915061184782611f64565b604082019050919050565b600061185f601f83611ae2565b915061186a82611fb3565b602082019050919050565b61187e81611c27565b82525050565b61188d81611c31565b82525050565b60006020820190506118a86000830184611662565b92915050565b60006020820190506118c36000830184611644565b92915050565b600060208201905081810360008301526118e38184611671565b905092915050565b600060208201905061190060008301846116cf565b92915050565b6000602082019050818103600083015261192081846116de565b905092915050565b6000602082019050818103600083015261194181611717565b9050919050565b600060208201905081810360008301526119618161173a565b9050919050565b600060208201905081810360008301526119818161175d565b9050919050565b600060208201905081810360008301526119a181611780565b9050919050565b600060208201905081810360008301526119c1816117a3565b9050919050565b600060208201905081810360008301526119e1816117c6565b9050919050565b60006020820190508181036000830152611a01816117e9565b9050919050565b60006020820190508181036000830152611a218161180c565b9050919050565b60006020820190508181036000830152611a418161182f565b9050919050565b60006020820190508181036000830152611a6181611852565b9050919050565b6000602082019050611a7d6000830184611875565b92915050565b6000602082019050611a986000830184611884565b92915050565b6000819050602082019050919050565b600081519050919050565b600081519050919050565b6000602082019050919050565b600082825260208201905092915050565b600082825260208201905092915050565b6000611afe82611c27565b9150611b0983611c27565b9250827fffffffffffffffffffffffffffffffffffffffffffffffffffffffffffffffff03821115611b3e57611b3d611ca3565b5b828201905092915050565b6000611b5482611c27565b9150611b5f83611c27565b9250817fffffffffffffffffffffffffffffffffffffffffffffffffffffffffffffffff0483118215151615611b9857611b97611ca3565b5b828202905092915050565b6000611bae82611c27565b9150611bb983611c27565b925082821015611bcc57611bcb611ca3565b5b828203905092915050565b6000611be282611c07565b9050919050565b6000611bf482611c07565b9050919050565b60008115159050919050565b600073ffffffffffffffffffffffffffffffffffffffff82169050919050565b6000819050919050565b600060ff82169050919050565b60005b83811015611c5c578082015181840152602081019050611c41565b83811115611c6b576000848401525b50505050565b60006002820490506001821680611c8957607f821691505b60208210811415611c9d57611c9c611cd2565b5b50919050565b7f4e487b7100000000000000000000000000000000000000000000000000000000600052601160045260246000fd5b7f4e487b7100000000000000000000000000000000000000000000000000000000600052602260045260246000fd5b6000601f19601f8301169050919050565b7f45524332303a207472616e7366657220746f20746865207a65726f206164647260008201527f6573730000000000000000000000000000000000000000000000000000000000602082015250565b7f45524332303a206275726e20616d6f756e7420657863656564732062616c616e60008201527f6365000000000000000000000000000000000000000000000000000000000000602082015250565b7f45524332303a20617070726f766520746f20746865207a65726f20616464726560008201527f7373000000000000000000000000000000000000000000000000000000000000602082015250565b7f45524332303a20696e73756666696369656e7420616c6c6f77616e6365000000600082015250565b7f45524332303a207472616e7366657220616d6f756e742065786365656473206260008201527f616c616e63650000000000000000000000000000000000000000000000000000602082015250565b7f45524332303a206275726e2066726f6d20746865207a65726f2061646472657360008201527f7300000000000000000000000000000000000000000000000000000000000000602082015250565b7f45524332303a207472616e736665722066726f6d20746865207a65726f20616460008201527f6472657373000000000000000000000000000000000000000000000000000000602082015250565b7f45524332303a20617070726f76652066726f6d20746865207a65726f2061646460008201527f7265737300000000000000000000000000000000000000000000000000000000602082015250565b7f45524332303a2064656372656173656420616c6c6f77616e63652062656c6f7760008201527f207a65726f000000000000000000000000000000000000000000000000000000602082015250565b7f45524332303a206d696e7420746f20746865207a65726f206164647265737300600082015250565b611fe581611bd7565b8114611ff057600080fd5b50565b611ffc81611c27565b811461200757600080fd5b5056fea26469706673582212203cf276cda4d95d0d6a0f2036e6ecb6eaf9d9fa9d1ad5abf5265ce25537cc342d64736f6c63430008040033",
  "linkReferences": {},
  "deployedLinkReferences": {}
}