{
  "_format": "hh-sol-artifact-1",
  "contractName": "Test",
  "sourceName": "contracts/Test.sol",
  "abi": [
    {
      "inputs": [
        {
          "internalType": "string",
          "name": "_name",
          "type": "string"
        }
      ],
      "stateMutability": "nonpayable",
      "type": "constructor"
    },
    {
      "anonymous": false,
      "inputs": [
        {
          "indexed": true,
          "internalType": "address",
          "name": "add",
          "type": "address"
        },
        {
          "indexed": false,
          "internalType": "string",
          "name": "name",
          "type": "string"
        }
      ],
      "name": "NameCreated",
      "type": "event"
    },
    {
      "inputs": [],
      "name": "getName",
      "outputs": [
        {
          "internalType": "string",
          "name": "",
          "type": "string"
        }
      ],
      "stateMutability": "view",
      "type": "function"
    },
    {
      "inputs": [],
      "name": "name",
      "outputs": [
        {
          "internalType": "string",
          "name": "",
          "type": "string"
        }
      ],
      "stateMutability": "view",
      "type": "function"
    },
    {
      "inputs": [
        {
          "internalType": "string",
          "name": "_name",
          "type": "string"
        }
      ],
      "name": "setName",
      "outputs": [],
      "stateMutability": "nonpayable",
      "type": "function"
    }
  ],
  "bytecode": "0x60806040523480156200001157600080fd5b50604051620008c7380380620008c7833981810160405281019062000037919062000179565b80600090805190602001906200004f92919062000057565b50506200032e565b828054620000659062000253565b90600052602060002090601f016020900481019282620000895760008555620000d5565b82601f10620000a457805160ff1916838001178555620000d5565b82800160010185558215620000d5579182015b82811115620000d4578251825591602001919060010190620000b7565b5b509050620000e49190620000e8565b5090565b5b8082111562000103576000816000905550600101620000e9565b5090565b60006200011e6200011884620001e7565b620001be565b9050828152602081018484840111156200013757600080fd5b620001448482856200021d565b509392505050565b600082601f8301126200015e57600080fd5b81516200017084826020860162000107565b91505092915050565b6000602082840312156200018c57600080fd5b600082015167ffffffffffffffff811115620001a757600080fd5b620001b5848285016200014c565b91505092915050565b6000620001ca620001dd565b9050620001d8828262000289565b919050565b6000604051905090565b600067ffffffffffffffff821115620002055762000204620002ee565b5b62000210826200031d565b9050602081019050919050565b60005b838110156200023d57808201518184015260208101905062000220565b838111156200024d576000848401525b50505050565b600060028204905060018216806200026c57607f821691505b60208210811415620002835762000282620002bf565b5b50919050565b62000294826200031d565b810181811067ffffffffffffffff82111715620002b657620002b5620002ee565b5b80604052505050565b7f4e487b7100000000000000000000000000000000000000000000000000000000600052602260045260246000fd5b7f4e487b7100000000000000000000000000000000000000000000000000000000600052604160045260246000fd5b6000601f19601f8301169050919050565b610589806200033e6000396000f3fe608060405234801561001057600080fd5b50600436106100415760003560e01c806306fdde031461004657806317d7de7c14610064578063c47f002714610082575b600080fd5b61004e61009e565b60405161005b91906103ab565b60405180910390f35b61006c61012c565b60405161007991906103ab565b60405180910390f35b61009c60048036038101906100979190610331565b6101be565b005b600080546100ab90610481565b80601f01602080910402602001604051908101604052809291908181526020018280546100d790610481565b80156101245780601f106100f957610100808354040283529160200191610124565b820191906000526020600020905b81548152906001019060200180831161010757829003601f168201915b505050505081565b60606000805461013b90610481565b80601f016020809104026020016040519081016040528092919081815260200182805461016790610481565b80156101b45780601f10610189576101008083540402835291602001916101b4565b820191906000526020600020905b81548152906001019060200180831161019757829003601f168201915b5050505050905090565b80600090805190602001906101d4929190610226565b503373ffffffffffffffffffffffffffffffffffffffff167f334530521c0dcbcdb16465057c66e2018a1f2d894437e95a634904f0deef79b78260405161021b91906103ab565b60405180910390a250565b82805461023290610481565b90600052602060002090601f016020900481019282610254576000855561029b565b82601f1061026d57805160ff191683800117855561029b565b8280016001018555821561029b579182015b8281111561029a57825182559160200191906001019061027f565b5b5090506102a891906102ac565b5090565b5b808211156102c55760008160009055506001016102ad565b5090565b60006102dc6102d7846103f2565b6103cd565b9050828152602081018484840111156102f457600080fd5b6102ff84828561043f565b509392505050565b600082601f83011261031857600080fd5b81356103288482602086016102c9565b91505092915050565b60006020828403121561034357600080fd5b600082013567ffffffffffffffff81111561035d57600080fd5b61036984828501610307565b91505092915050565b600061037d82610423565b610387818561042e565b935061039781856020860161044e565b6103a081610542565b840191505092915050565b600060208201905081810360008301526103c58184610372565b905092915050565b60006103d76103e8565b90506103e382826104b3565b919050565b6000604051905090565b600067ffffffffffffffff82111561040d5761040c610513565b5b61041682610542565b9050602081019050919050565b600081519050919050565b600082825260208201905092915050565b82818337600083830152505050565b60005b8381101561046c578082015181840152602081019050610451565b8381111561047b576000848401525b50505050565b6000600282049050600182168061049957607f821691505b602082108114156104ad576104ac6104e4565b5b50919050565b6104bc82610542565b810181811067ffffffffffffffff821117156104db576104da610513565b5b80604052505050565b7f4e487b7100000000000000000000000000000000000000000000000000000000600052602260045260246000fd5b7f4e487b7100000000000000000000000000000000000000000000000000000000600052604160045260246000fd5b6000601f19601f830116905091905056fea2646970667358221220af7730a5ba2b893b4145745678c477bcc2436d935f368f5959ef5d2084d2eaaa64736f6c63430008040033",
  "linkReferences": {},
  "deployedLinkReferences": {}
}